:10000000DAC5000000C60000FEC50000FCC5000007
:10001000FAC50000F8C50000F6C50000F4C50000F0
:10002000F2C50000F0C500000C94022F0C94942F30
:10003000EAC50000E8C50000E6C50000E4C5000010
:10004000E2C50000E0C50000DEC50000DCC5000020
:10005000DAC50000D8C50000D6C500000C94412EBA
:10006000D2C50000D0C50000CEC50000CCC5000040
:10007000CAC50000C8C50000C6C50000C4C5000050
:10008000C2C50000C0C50000BEC50000BCC5000060
:100090000C94ED1EB8C50000B6C50000B4C5000044
:1000A000B2C50000B0C50000AEC5000000407A1027
:1000B000F35A00A0724E18090010A5D4E80000E819
:1000C0007648170000E40B54020000CA9A3B000077
:1000D00000E1F505000080969800000040420F0006
:1000E0000000A08601000000102700000000E803C7
:1000F000000000006400000000000A000000000092
:100100000100000000002C76D888DC674F0823DF50
:10011000C1DFAE59E1B1B796E5E3E453C63AE65123
:10012000997696E8E6C28426EB898C9B62ED407C4A
:100130006FFCEFBC9C9F40F2BAA56FA5F490055AE6
:100140002AF75C936B6CF9676DC11BFCE0E40D470B
:10015000FEF520E6B500D0ED902E0300943577052E
:100160000080841E080000204E0A000000C80C33E6
:100170003333330F986E12831141EF8D2114893B75
:10018000E65516CFFEE6DB18D1844B381BF77C1DF5
:10019000901DA4BBE424203284725E228100C9F148
:1001A00024ECA1E53D274552524F52202332004C0A
:1001B0004154454E4359203E20313030306D73005C
:1001C000534355523A0053543A002053544F3A0087
:1001D0004552524F5220233300534355523A004C5C
:1001E0004D494E3A00204C4D41583A0053543A0084
:1001F0002053544F3A004552524F5220233100535E
:10020000544F2054494D454F555400534355523A8D
:100210000053543A002053544F3A004552524F5223
:1002200020233600554E4556454E204652414D45F9
:1002300052415445004652414D452054494D453A9E
:100240002000206D73004E4F4953453A20004C4525
:1002500056454C3A2000465245452052414D3A20E1
:10026000004445425547004C41473A0041543A202A
:100270000020487A006D73004C41473A00495445CC
:10028000524154494F4E3A20002F004C41472043E1
:10029000555252454E543A20006D7300505245530A
:1002A0005320544F20424547494E004C43442000C0
:1002B00043525420004D4F44453A2000204C4147C2
:1002C00000487A004552524F52202337005345547C
:1002D00054494E47204D4F44452054494D454F55B4
:1002E00054004D4541535552494E470060205345F7
:1002F0004E534F52204C4556454C530060205245BA
:1003000046524553482052415445004552524F529F
:10031000202335005245465245534820524154450A
:100320002054494D454F5554004D45415355524970
:100330004E4700602053454E534F52204C45564582
:100340004C53006020524546524553482052415478
:10035000452E2E2E004552524F52202334004C4F32
:100360005720204C564C3A0048494748204C564CA0
:100370003A004D4541535552494E47006020534580
:100380004E534F52204C4556454C532E2E2E005066
:100390005245535320544F20434F4E54494E5545D8
:1003A00000524541445900504C4143452047494C77
:1003B00054204F4E2054484500475245454E205248
:1003C000454354414E474C45005445535445520013
:1003D00047414D4520494E505554204C414700500F
:1003E000455243454956454400494E5055540044F2
:1003F0004953504C415900505245535320544F20BB
:10040000524553544152540076312E3100AD0614FA
:1004100004207E080000000006000000000107061E
:1004200002000200030306010004000505060001A6
:10043000080005070600000D000507060000120071
:100440000507060000170001030602001800020756
:100450000601001A0002070601001C000303060142
:10046000001E000505060001220002040602052305
:10047000000501060003250002020602052600030E
:1004800007060100290005070600002E00030706E5
:1004900001003200050706000037000507060000CE
:1004A0003C00050706000041000507060000460065
:1004B00005070600004B0005070600005000050771
:1004C000060000550005070600005A000103060259
:1004D000025B0000000600005B0005050600015FEE
:1004E0000005030600026100050506000165000520
:1004F000070600006A0005070600006F00050706F2
:1005000000007400050706000079000507060000DA
:100510007E0005070600008300050706000088002E
:1005200005070600008D000507060000920005077C
:10053000060000970003070601009B000507060060
:1005400000A0000507060000A5000507060000AA98
:10055000000507060000AF000507060000B400050F
:1005600007060000B9000507060000BE00050706E3
:100570000000C3000507060000C8000507060000CC
:10058000CD000507060000D2000507060000D700D1
:100590000507060000DC000507060000E10005076E
:1005A000060000E6000507060000EB000507060050
:1005B00000F0000207060100F2000307060100F543
:1005C000000207060100F7000503060000FA000517
:1005D00001060006FB000505060001FF00000006FD
:1005E0000000FF000000060000FF00000006000001
:1005F000FF000000060000FF000000060000FF00F2
:100600000000060000FF000000060000FF000000E0
:10061000060000FF000000060000FF0000000600CA
:1006200000FF000000060000FF000000060000FFC1
:10063000000505060002030100000600000301009A
:100640000006000003010000060000030100000690
:10065000000003010000060000030105050600027A
:100660000701000006000007010000060000070166
:1006700005050600020B0100000600000B0100004A
:100680000600000B0100000600000B010505060036
:10069000020F0100000600000F0100000600000F1D
:1006A0000100000600000F010000060000FA00B67D
:1006B0008057D5F50023A8E2B880CE44444E60644C
:1006C000A4CAC9A0E06AA495585500213E4200F68C
:1006D0007000F0252520746318C5C05924B8007433
:1006E000422223E0744260C5C011952F8840FC214E
:1006F000E087C07461E8C5C0F8442210807462E8E5
:10070000C5C07462F0C5C0A01B20C180F83EC18284
:100710006C007462220080746759C1C07463F8C6AB
:1007200020F463E8C7C074610845C0F46318C7C00B
:10073000FC21C843E0FC21C84200746178C5E08C0C
:1007400063F8C620E924B800F84210C5C08C65C91A
:10075000462084210843E08EF75AC6208C7359C680
:1007600020746318C5C0F463E8420074631AC9A01A
:10077000F463EA4A207460E0C5C0F9084210808C36
:100780006318C5C08C631528808C6B5AA9408C54A3
:100790004546208C54421080F8444443E0EAAC9132
:1007A0002448D55C22A200F877FFF700D56B5A8069
:1007B0007C1C1F008C54A200F85D0F804677FFFF61
:1007C000FFFFFFFFFFFFFFFFFFFFEE624677FFFF28
:1007D000FFFFFFFFFFFFFFFFFFFFEE624677FFFF18
:1007E000FFFFFFFFFFFFFFFFFFFFEE624677FFFF08
:1007F000FFFFFFFFFFFFFFFFFFFFEE624677FFFFF8
:10080000FFFFFFFFFFFFFFFFFFFFEE624677FFFFE7
:10081000FFFFFFFFFFFFFFFFFFFFEE624677FE00D7
:10082000007FE1FF87FFF00000FFEE624677FC00EB
:10083000007FE1FF87FFF00000FFEE624677F800DF
:10084000007FE1FF87FFF00000FFEE624677F800CF
:10085000007FE1FF87FFF00000FFEE624677F83F80
:10086000FFFFE1FF87FFFFF0FFFFEE624677F87FB3
:10087000FFFFE1FF87FFFFF0FFFFEE624677F87FA3
:10088000FFFFE1FF87FFFFF0FFFFEE624677F870A2
:10089000007FE1FF87FFFFF0FFFFEE624677F87011
:1008A000007FE1FF87FFFFF0FFFFEE624677F87001
:1008B000007FE1FF87FFFFF0FFFFEE624677F870F1
:1008C000007FE1FF87FFFFF0FFFFEE624677F87FD2
:1008D000F87FE1FF87FFFFF0FFFFEE624677F87FCA
:1008E000F87FE1FF87FFFFF0FFFFEE624677F83FFA
:1008F000F87FE1FF87FFFFF0FFFFEE624677F80029
:100900000070E1C3800070F0FF0FEE624677F800E0
:100910000070E1C3800070F0FF0FEE624677FC00CC
:100920000070E1C3800070F0FF0FEE624677FE00BA
:100930000070E1C3800070F0FF0FEE624677FFFFAA
:10094000FFFFFFFFFFFFFFFFFFFFEE624677FFFFA6
:10095000FFFFFFFFFFFFFFFFFFFFEE624677FFFF96
:10096000FFFFFFFFFFFFFFFFFFFFEE624677FFFF86
:10097000FFFFFFFFFFFFFFFFFFFFEE624677FFFF76
:10098000FFFFFFFFFFFFFFFFFFFFEE624677FFFF66
:10099000FFFFFFFFFFFFFFFFFFFFEE6252455354D3
:1009A0004152542E2E2E002200FF21000001030789
:1009B0000F1F3F7F0080C0E0F0F8FCFEDB40A4A6E4
:1009C0002EAFDA0281DA1281DA02818F2000A1C80B
:1009D000D300408DAED580A8012302230423082331
:1009E000802301290229042908294026802640293C
:1009F0008029102320234023802F402F202F102FC9
:100A0000022F012F10292029402C7DFD7DFB7DF731
:100A10007DEF7DDF7E7F7EBF7EDF7EEF7EFD7EFE13
:100A20007DFE0001040506070D0C0B0A09080A0BE0
:100A30000C0D0706050401000800010000260B123A
:100A400000020000890A4200220000E70A3F00215C
:100A500000009B0A0900220100CB0A1C00210100B2
:100A6000B40A0900030000850A0401030904710A9D
:100A700012120347002E0049002E004C002E005495
:100A8000002E0000000403090409024200020100D4
:100A9000C032090400000103010100092111010015
:100AA00001223F000705810308000109040100023B
:100AB00003000002092111010001221C0007058228
:100AC000034000010705030340000106ABFF0A00D5
:100AD00002A1017508150026FF0095400901810259
:100AE000954009029102C005010906A10175019511
:100AF00008050719E029E715002501810295017510
:100B000008810395057501050819012905910295CC
:100B10000175039103950675081500257F050719D2
:100B200000297F8100C01201000200000040C016B1
:100B3000820471020001000101C10601C13601C039
:100B400036002C5E7460616264346667656E362DB3
:100B50003738271E1F202122232425267333762E83
:100B600077785F4445464748494A4B4C4D4E4F5075
:100B70005152535455565758595A5B5C5D2F31307A
:100B8000636D350405060708090A0B0C0D0E0F10DE
:100B90001112131415161718191A1B1C1D6F7170DA
:100BA000752A07078907D614EF17561E96330D07C7
:100BB000C407E214F51711241FBECFEFDAE0DEBF41
:100BC000CDBF11E0A0E0B1E0ECE3F3E702C0059097
:100BD0000D92AC3AB107D9F725E0ACEAB1E001C01B
:100BE0001D92A132B207E1F715E0C7EDD5E004C0D0
:100BF0002197FE010E94EB33C13DD107C9F70E9446
:100C0000522A0C949239FCC90F931F93CF93DF9310
:100C1000EC01CB0119861A861B861C861D8651E0C5
:100C20005E8761E070E0798368839B838A830D83AC
:100C30001E832F8338874C831F86188A198A1A8A45
:100C40001B8A08EB1BE020E030E00C8B1D8B2E8B09
:100C50003F8B642F0E94262D188EDF91CF911F911C
:100C60000F910895CF92DF92EF92FF920F931F930F
:100C7000DC010FB6F89400910C0510910D05209140
:100C80000E0530910F050FBE1996CD90DD90ED90B9
:100C9000FC901C9715964D915D916D917C911897E4
:100CA0004C0D5D1D6E1D7F1D4017510762077307B8
:100CB00010F50FB6F89440910C0550910D05609118
:100CC0000E0570910F050FBE19964D935D936D93B0
:100CD0007C931C971296ED91FC911397FF270E942D
:100CE000C62DE11105C081E01D968C931D9703C0B0
:100CF0001D961C921D971D968C911F910F91FF9030
:100D0000EF90DF90CF9008951F93CF93DF93EC0186
:100D10001E85A8DF181761F08D858E87882341F026
:100D20002881398181E090E0821B930B998388832D
:100D300081E028813981232B09F480E0DF91CF9174
:100D40001F9108950F931F93FC0185858823A1F1BE
:100D50004089518962897389411551056105710581
:100D600081F40FB6F89480910C0590910D05A09137
:100D70000E05B0910F050FBE808B918BA28BB38BAC
:100D800020C00FB6F89400910C0510910D0520912C
:100D90000E0530910F050FBE84899589A689B78904
:100DA000840F951FA61FB71F80179107A207B307CF
:100DB00040F481E0878705C0108A118A128A138A5D
:100DC000178687851F910F9108951F93CF93DF9307
:100DD000EC0181E090E0998388831E85CE0142DF9B
:100DE00018130DC06AE070E080E090E00E94812E50
:100DF000CE01A8DF882389F30E94C717EECF8D8527
:100E00008E87882379F3DF91CF911F91089563E254
:100E100071E08CEA91E00C94CE288CEA91E00C947D
:100E20006A28A0E0B0E0E7E1F7E00C941034EC01B0
:100E30006B0181E090E09983888332E0832E912CCE
:100E400049E3A42EB12C1E85CE010CDF18130DC072
:100E50006AE070E080E090E00E94812ECE0172DFB7
:100E6000882361F00E94C71709C08D858E8788236B
:100E700079F3CDB7DEB7ECE00C942C349092D80126
:100E80008092D701B092DA01A092D90160E08CEC97
:100E900091E00E94721DB6018CEC91E00E94B42694
:100EA000888D885F888FE12CF12C06E010E02CE023
:100EB00030E04AE350E063E770E08CEC91E00E94A0
:100EC0000A19488D50E0440F452F441F550B440F1D
:100ED000551F455C5F4FEE24E394F12C05E010E0D4
:100EE00028E030E065E770E08CEC91E00E94A61904
:100EF00001E010E02CE030E04FE350E063E770E009
:100F00008CEC91E00E9444258CEC91E00E94C3257A
:100F10009ACF8F929F92AF92BF92CF92DF92EF9231
:100F2000FF920F931F9363E271E08AE092E00E94C8
:100F3000CE2880EA882E86E8982EAA24A394B12C85
:100F4000C12C95E3D92E9CE0E92EF12C04E02DEA8A
:100F500033E040E460E88CEC91E00E94FE200AE07F
:100F600010E020E030E042E06AE070E083EB91E0E6
:100F70004BDE1F910F91FF90EF90DF90CF90BF90CD
:100F8000AF909F908F9008958CEC91E00E94482143
:100F90008AE092E00C946A28FF920F931F93CF93FC
:100FA000DF93EC01403A86E8580781E06807710555
:100FB00018F482E0F82E02C0FF24F394CB01BA01AA
:100FC0000E943F352FE632E143E85AE30E94CD35D7
:100FD00004E011E02F2D45E00E943036BC01CE0127
:100FE0000E94CE28CE01CDB7DEB7E5E00C943334B5
:100FF000CF93DF93DB01FA01AB0160E070E0E11118
:1010000009C0EC01E881F9810190F081E02D6A2F9F
:10101000099515C0EA3011F0E13021F420E00E947A
:1010200023270DC0E03119F40E948B2708C0E2305D
:1010300019F40E94BE2703C02E2F0E94E927DF91DA
:10104000CF910895AFE3B0E0E8E2F8E00C941234F9
:10105000C0903903D0903A03E0903B03F0903C03FA
:1010600080910F0190911001A0911101B091120196
:10107000C81AD90AEA0AFB0A20E030E040EC5FE334
:101080006091410370914203809143039091440326
:101090000E94CD350E9413356C157D058E059F0588
:1010A00008F068C086E195E00E94873240913903DC
:1010B00050913A0360913B0370913C0380910F0182
:1010C00090911001A0911101B0911201481B590B90
:1010D0006A0B7B0BCE0146965FDF65E372E0CE01C3
:1010E0000F960E940E29BE016A5E7F4FCE010F96B9
:1010F0000E94F32962E472E00E94132A7C0164E2F8
:1011000072E0CE0101960E940E296BE172E0CE01E1
:1011100008960E940E290FE913E09801A701BE016D
:101120006F5F7F4FCE0108960E941517CE0108967B
:101130000E946A28CE0101960E946A28CE010F966D
:101140000E946A28CE0146960E946A2867EF73E0E3
:10115000CE0101960E940E29BE016F5F7F4F83EB87
:1011600091E05FDECE0101960E946A2810920A018A
:1011700081E001C080E04091170150911801609119
:10118000190170911A01411551056105710509F0A8
:101190004DC086E195E00E94873260911F037091F7
:1011A00020034AE0CE010F960E944029609121035E
:1011B000709122034AE0CE014D960E94402961E1E0
:1011C00072E0CE0146960E940E29BE01635E7F4FFB
:1011D000CE0146960E94F32965E172E00E94132A2F
:1011E000BE01615F7F4F0E94F3296C016091330360
:1011F000709134034AE0CE018B960E9440296BE047
:1012000072E0CE0184960E940E29BE01655D7F4F7B
:10121000CE0184960E94F3297C016FEF71E0CE012C
:1012200001960E940E2966EF71E0F7C04A3F510512
:101230006105710508F09FC086E195E00E94873244
:1012400060911F03709120034AE0CE0108960E942E
:10125000402960912103709122034AE0CE01469615
:101260000E9440296CEE71E0CE010F960E940E297B
:10127000BE016A5E7F4FCE010F960E94F32960EF98
:1012800071E00E94132ABE01685F7F4F0E94F3291C
:101290005C0160912F03709130034AE0CE014D96BE
:1012A0000E94402960913103709132034AE0CE01DF
:1012B0008B960E9440296FED71E0CE0184960E94CA
:1012C0000E29BE01655D7F4FCE0184960E94F329F1
:1012D00065EE71E00E94132ABE01635E7F4F0E949B
:1012E000F3296C0160913303709134034AE0CE011D
:1012F000C9960E94402969ED71E0CE01C2960E9414
:101300000E29BE01675C7F4FCE01C2960E94F32971
:101310007C0160ED71E0CE0101960E940E290FE97B
:1013200013E09501A601B701CE0101960E941517A1
:10133000CE0101960E946A28CE01C2960E946A28B8
:10134000CE01C9960E946A28CE0184960E946A281E
:10135000CE018B960E946A28CE014D960E946A2883
:10136000CE010F960E946A28CE0146960E946A28F6
:10137000CE0108967BC0413452446F40710508F499
:101380008AC086E195E00E94873260911F037091C8
:1013900020034AE0CE010F960E944029609121036C
:1013A000709122034AE0CE014D960E94402966ECDE
:1013B00071E0CE0146960E940E29BE01635E7F4F0A
:1013C000CE0146960E94F3296AEC71E00E94132A2E
:1013D000BE01615F7F4F0E94F3296C01609133036E
:1013E000709134034AE0CE018B960E94402960EC54
:1013F00071E0CE0184960E940E29BE01655D7F4F8B
:10140000CE0184960E94F3297C016FEA71E0CE013F
:1014100001960E940E2966EA71E0CE0108960E94AC
:101420000E290FE913E09601A701BE016F5F7F4F00
:10143000CE0108960E941517CE0108960E946A28D0
:10144000CE0101960E946A28CE0184960E946A28E5
:10145000CE018B960E946A28CE0146960E946A2889
:10146000CE014D960E946A28CE010F960E946A28EE
:1014700067EF73E0CE0101960E940E29BE016F5FF7
:101480007F4F83EB91E0CDDCCE0101960E946A286C
:1014900010920A0181E0EF96EAE00C942E34A2E368
:1014A000B0E0E5E5FAE00C940A34AA24A394B12C48
:1014B000E1E32E2E312CF0E38F2E912CA0E44A2E66
:1014C000A2E45A2EAFE06A2E712C8CEC91E00E94BF
:1014D0007422B092DE01A092DD01B092DC01A092F4
:1014E000DB01CC24C394D12C6EE1E62EF12C00E874
:1014F00010E02CEB37E040E050E060E070E08CEC76
:1015000091E00E942B1A61E08CEC91E00E94721D28
:1015100086E190E09093D8018093D70184E290E037
:101520009093DA018093D90160ED73E08CEC91E047
:101530000E94ED263092D8012092D7019092DA01D4
:101540008092D90169EC73E08CEC91E00E94ED2669
:101550008CEC91E00E94C3256FE973E083EB91E08E
:1015600060DC8CEC91E00E94742269EB73E0CE01A8
:1015700001960E940E2967EA73E0CE0108960E9448
:101580000E2961EA73E0CE010F960E940E290FE941
:1015900013E09801AE014F5F5F4FBE01685F7F4F60
:1015A000CE010F960E941517CE010F960E946A2851
:1015B000CE0108960E946A28CE0101960E946A28F0
:1015C00062E670EF86E195E00E9405326FE873E015
:1015D000CE0101960E940E29BE016F5F7F4F83EB03
:1015E00091E01FDCCE0101960E946A286CE773E04F
:1015F000CE0101960E940E2962E773E0CE010896A3
:101600000E940E299801A801BE016F5F7F4FCE0195
:1016100008960E941517CE0108960E946A28CE01EE
:1016200001960E946A2886E195E00E94873280E058
:1016300094E0909332038093310310923003109220
:101640002F0390932C0380932B0310922A03109264
:101650002903909328038093270310922603109266
:10166000250340921701509218016092190170925F
:101670001A0140920F015092100160921101709274
:1016800012011092390310923A0310923B03109208
:101690003C031092350310923603109237031092D8
:1016A000380310921E0310921D03109255031092DE
:1016B0005603109257031092580310921903109278
:1016C0001A0310921B0310921C0381E080930A01FD
:1016D0006BE570EF86E195E00E94053266E970E007
:1016E00080E090E00E94812E0FB6F89480910C0566
:1016F00090910D05A0910E05B0910F050FBE8C596C
:101700009F4FAF4FBF4F8093510390935203A093CD
:101710005303B09354030FB6F89440910C055091C5
:101720000D0560910E0570910F050FBE809151035C
:1017300090915203A0915303B09154034817590755
:101740006A077B07F0F486E10E94832C90933403B0
:101750008093330320912703309128038217930746
:1017600020F4909328038093270320912503309140
:1017700026032817390778F69093260380932503CC
:10178000CACF86E195E00E9487328091270390912D
:101790002803880F991F2091250330912603821773
:1017A000930720F481E08093180302C0109218037D
:1017B0006AE570EF86E195E00E94053266E970E027
:1017C00080E090E00E94812E0FB6F89480910C0585
:1017D00090910D05A0910E05B0910F050FBE8C598B
:1017E0009F4FAF4FBF4F8093510390935203A093ED
:1017F0005303B09354030FB6F89440910C055091E5
:101800000D0560910E0570910F050FBE809151037B
:1018100090915203A0915303B09154034817590774
:101820006A077B07F0F486E10E94832C90933403CF
:101830008093330320912B0330912C03821793075D
:1018400020F490932C0380932B0320912903309153
:101850002A032817390778F690932A0380932903DF
:10186000CACF86E195E00E94873269E570EF86E194
:1018700095E00E94053266E970E080E090E00E9409
:10188000812E0FB6F89480910C0590910D05A091D2
:101890000E05B0910F050FBE8C599F4FAF4FBF4F34
:1018A0008093510390935203A0935303B093540336
:1018B0000FB6F89440910C0550910D0560910E05FE
:1018C00070910F050FBE8091510390915203A0912A
:1018D0005303B0915403481759076A077B07F0F484
:1018E00086E10E94832C90933403809333032091EC
:1018F0003103309132038217930720F4909332031F
:101900008093310320912F0330913003281739073A
:1019100078F69093300380932F03CACF86E195E049
:101920000E94873220913103309132038091270346
:101930009091280360912503709126032817390799
:1019400068F480912F03909130038617970730F445
:10195000880F991F6817790708F078C04AE0CE0110
:1019600008960E94402960912703709128034AE05D
:10197000CE0146960E94402968E673E0CE010F969C
:101980000E940E29BE016A5E7F4FCE010F960E9413
:10199000F32962E271E00E94002ABE01685F7F4F76
:1019A0000E94F3296C0160912F03709130034AE08B
:1019B000CE014D960E94402960913103709132030F
:1019C0004AE0CE018B960E9440296EE573E0CE017D
:1019D00084960E940E29BE01655D7F4FCE018496DC
:1019E0000E94F32962E271E00E94002ABE01635E58
:1019F0007F4F0E94F3297C0165E573E0CE010196DB
:101A00000E940E290FE913E09801A601B701CE014B
:101A100001960E941517CE0101960E946A28CE01F8
:101A200084960E946A28CE018B960E946A28CE0175
:101A30004D960E946A28CE010F960E946A28CE0118
:101A400046960E946A28CE01089636C180911803F6
:101A5000882311F08CE301C08FE080939E0363E440
:101A600073E0CE0101960E940E2963E373E0CE017C
:101A700008960E940E2969E273E0CE010F960E943B
:101A80000E290FE913E09801AE014F5F5F4FBE01D1
:101A9000685F7F4FCE010F960E941517CE010F96FB
:101AA0000E946A28CE0108960E946A28CE010196FB
:101AB0000E946A2866E970E080E090E00E94812E32
:101AC00080911803882319F06BE570EF02C06EE572
:101AD00070EF86E195E00E94053220911D03309160
:101AE0001E0380919E0390E001962817390708F0A5
:101AF000EAC02F5F3F4F30931E0320931D030E94C7
:101B0000A12E6093590370935A0380935B039093C3
:101B10005C03209125033091260380912F0390913F
:101B20003003820F931F9695879520913303309150
:101B300034032817390768F58091550390915603AF
:101B4000A0915703B091580380349244AF40B1053F
:101B500000F586E10E94832C909334038093330335
:101B60000E94A12E0091590310915A0320915B030A
:101B700030915C03DC01CB01801B910BA20BB30BFA
:101B80008093550390935603A0935703B093580343
:101B9000C0CF20911D0330911E032130310551F437
:101BA0000E94A12E6093490370934A0380934B03D4
:101BB00090934C0380919E0390E0019682179307C7
:101BC00051F40E94A12E60934503709346038093C5
:101BD0004703909348030E94A12E6093590370938A
:101BE0005A0380935B0390935C032091250330910B
:101BF000260380912F0390913003820F931F9695B7
:101C000087959695879520913303309134034091C1
:101C100055035091560360915703709158038217F2
:101C2000930738F5403482E458078FE06807710560
:101C300000F586E10E94832C909334038093330354
:101C40000E94A12E0091590310915A0320915B0329
:101C500030915C03DC01CB01801B910BA20BB30B19
:101C60008093550390935603A0935703B093580362
:101C7000BCCF413452446F40710508F42ECF64E16B
:101C800073E0CE0101960E940E296BE073E0CE0155
:101C900008960E940E290FE913E09801A801BE01E1
:101CA0006F5F7F4FCE0108960E941517CE010896F0
:101CB0000E946A28CE0101960E946A2886E195E07A
:101CC0000E94873253C186E195E00E94873240919D
:101CD000180320919E032AAB8091450390914603FF
:101CE000A0914703B09148030091490310914A0322
:101CF00020914B0330914C03BC01CD01601B710B53
:101D0000820B930B442391F00E943F356B017C01C1
:101D10004AA9642F70E080E090E00E943F359B016B
:101D2000AC01C701B6010E94A63417C00E943F351E
:101D30006B017C012AA9622F70E080E090E00E9494
:101D40003F359B01AC01C701B6010E94A63420E0DB
:101D500030E040E85EE30E94CD356093410370932C
:101D600042038093430390934403209141033091B5
:101D70004203409143035091440360E074E284E7DE
:101D800099E40E94A63460933D0370933E038093D0
:101D90003F039093400364E271E0CE0101960E94FC
:101DA000CE286CEF72E0CE0108960E940E296CEEF0
:101DB00072E0CE010F960E940E2962EE72E0CE0113
:101DC00046960E940E290FE913E09E012F5F3F4FB8
:101DD000AE01485F5F4FBE01615F7F4FCE01469607
:101DE0000E941517CE0146960E946A28CE010F96D2
:101DF0000E946A28CE0108960E946A28CE010196A8
:101E00000E946A2866E970E080E090E00E94812EDE
:101E100080911803882319F06DE570EF02C06CE51E
:101E200070EF86E195E00E94053210921E03109239
:101E30001D031092550310925603109257031092EF
:101E400058030E94A12E6B017C01609141037091A7
:101E5000420380914303909144030E941335DC01B7
:101E6000CB0115E0880F991FAA1FBB1F1A95D1F748
:101E7000C80ED91EEA1EFB1EC0924D03D0924E031F
:101E8000E0924F03F09250030E94A12E00914D0367
:101E900010914E0320914F0330915003601771074A
:101EA0008207930760F520912503309126038091E6
:101EB0002F0390913003820F931F96958795209161
:101EC000330330913403C0904D03D0904E03E09023
:101ED0004F03F09050032817390708F0EFC30E9412
:101EE000A12E6C157D058E059F0508F0E7C386E1E0
:101EF0000E94832C9093340380933303D4CF86E1E4
:101F000095E00E94873260911D0370911E0360FD71
:101F100004C0CB0101970697D8F14AE0CE010F9695
:101F20000E9440296DEC72E0CE0101960E940E29BC
:101F300064EC72E0CE0108960E940E290FE913E0CE
:101F40009801AE01415F5F4FBE016F5F7F4FCE01D1
:101F500008966BD7CE0108960E946A28CE0101969A
:101F60000E946A28CE010F960E946A2867EF73E0EC
:101F7000CE0101960E940E29BE016F5F7F4F83EB59
:101F800091E00E941107CE0101960E946A289DCA25
:101F900076956795262F60939D038091180388237B
:101FA000F9F080912F03909130039C01220F331F91
:101FB0004091310350913203241B350B309322039F
:101FC0002093210304962817390720F490932203C5
:101FD00080932103809121039091220302972CC0CA
:101FE00060912B0370912C038091290390912A0317
:101FF000233049F59C01220F331F261B370B3093EA
:10200000220320932103AC014C5F5F4F2417350757
:1020100020F4509322034093210320912103309117
:102020002203260F371F281B390B309320032093E0
:102030001F032817390720F49093200380931F0370
:1020400069E570EF25C0709332036093310390937C
:10205000300380932F03AC01440F551F9A01261BB8
:10206000370B309322032093210304962817390756
:1020700020F4909322038093210380912103909177
:10208000220302979093200380931F036AE570EF69
:1020900086E195E00E94053280919D03823039F0FF
:1020A000833041F0813061F46FEE73E005C069EE7A
:1020B00073E002C06FED73E081E193E00E947E293E
:1020C00066E970E080E090E00E94812E86E195E074
:1020D0000E94873261EC72E0CE0101960E940E29C7
:1020E00065EB72E0CE0108960E940E2961E173E073
:1020F000CE0108960E94F3296CEB72E00E94132A2D
:102100006C0140913D0350913E0360913F037091FB
:10211000400322E0CE0146960E945F298091180379
:10212000811103C06BEA72E002C060EB72E07E01D5
:102130004DE1E40EF11CC7010E940E29B701CE014A
:102140000F960E942129BE016A5E7F4FCE010F9635
:102150000E94F3298E010F5F1F4F2FE933E0A90181
:10216000B60163D6CE010F960E946A28C7010E946D
:102170006A28CE0146960E946A28CE0108960E94DF
:102180006A28C8010E946A286CE972E0C8010E94AE
:102190000E29B80183EB91E00E941107C8010E944B
:1021A0006A2810921E0310921D031092350310929C
:1021B0003603109237031092380383EB91E00E94AC
:1021C0008406882309F4C9C180911D0390911E03E0
:1021D000883E23E0920708F0C0C1019690931E0349
:1021E00080931D0386E10E94832C90933403809397
:1021F000330390932E0380932D03109224031092A7
:10220000230380919D03823008F496C26BE570EF42
:1022100086E195E00E9405320E94A12E6093590349
:1022200070935A0380935B0390935C032091330374
:1022300030913403809121039091220380905903BF
:1022400090905A03A0905B03B0905C032817390765
:1022500008F475C28091170190911801A09119019D
:10226000B0911A018093130190931401A09315016A
:10227000B09316010E94A12EDC01CB0188199909A7
:10228000AA09BB098093170190931801A093190123
:10229000B0931A0180919D038130E1F510925D03A6
:1022A00010925E0385E195E00E94983248EE53E07B
:1022B0006DE573E085E195E00E94A83240915E03F0
:1022C00050E0542F442780915D03480F511D60E07A
:1022D00070E04093190350931A0360931B037093AB
:1022E0001C038091170190911801A0911901B091E0
:1022F0001A01481759076A077B0760F4841B950B7E
:10230000A60BB70B8093170190931801A0931901A6
:10231000B0931A018091170190911801A0911901B1
:10232000B0911A0140910F0150911001609111017B
:102330007091120184179507A607B70740F48093A0
:102340000F0190931001A0931101B09312014091DD
:10235000390350913A0360913B0370913C03481755
:1023600059076A077B0740F48093390390933A0337
:10237000A0933B03B0933C0320911D0330911E03B7
:10238000283E3340A0F440913503509136036091CC
:10239000370370913803840F951FA61FB71F8093D2
:1023A000350390933603A0933703B09338030E940C
:1023B00022088111D2C00E94A12E6093590370930C
:1023C0005A0380935B0390935C0380905903909031
:1023D0005A03A0905B03B0905C0380E2880E8EE409
:1023E000981EA11CB11C0E94A12E681579058A05B2
:1023F0009B0508F4B3C186E195E00E948732809185
:102400009D03823009F4BEC1833009F4C4C1813018
:1024100009F4B8C169E972E0CE0101960E940E2963
:1024200040911701509118016091190170911A01A2
:10243000CE010F960E94CC076BE872E0CE010896A1
:102440000E940E29BE01615F7F4FCE0108960E9457
:10245000F3295C0160911D0370911E034AE0C701DE
:102460000E9440296DE772E0CE0146960E940E2937
:10247000B701CE0146960E94F32969E872E00E94F6
:10248000132A68EE73E00E941B2A6C0168E772E071
:10249000CE0184960E940E2961E173E0CE018496FC
:1024A0000E94F3298E010F5F1F4F9501A6016FE96E
:1024B00073E0BBD4CE0184960E946A28CE01469672
:1024C0000E946A28C7010E946A28CE0108960E94CD
:1024D0006A28CE010F960E946A28C8010E946A28C5
:1024E0000E94A12E6093590370935A0380935B035B
:1024F00090935C030E94A12EDC01CB01805C9D4B7C
:10250000A04FBF4F80934D0390934E03A0934F0372
:10251000B09350038091180381115FC198EE892E0A
:1025200093E0992EA12CB12C8091590390915A03DC
:10253000A0915B03B0915C03880E991EAA1EBB1E7E
:102540000E94A12E681579058A059B0508F44CC1E7
:102550000E942208882309F474C180910A0188230B
:1025600009F420C280919D03823039F08330E1F07C
:102570008130C1F56FEE73E002C069EE73E081E176
:1025800093E00E947E2980910F0190911001A0910B
:102590001101B09112018093170190931801A0933B
:1025A0001901B0931A011EC06FED73E081E193E051
:1025B0000E947E2920911D0330911E0340E050E0CF
:1025C0006091350370913603809137039091380301
:1025D0000E94AD33209317013093180140931901E5
:1025E00050931A0162E670EF86E195E00E94053291
:1025F00065E772E0CE0101960E940E2940913D03ED
:1026000050913E0360913F037091400322E0CE0160
:102610000F960E945F296CE672E0CE0108960E9438
:102620000E29BE01615F7F4FCE0108960E94F329FB
:1026300061E772E00E94132A7C01409117015091DA
:1026400018016091190170911A01CE014D960E94F6
:10265000CC0767E672E0CE0146960E940E29BE01C5
:10266000635E7F4FCE0146960E94F3298E010F5F75
:102670001F4F97014FE953E0BC0181E193E02ED455
:10268000CE0146960E946A28CE014D960E946A2885
:10269000CE0108960E946A28CE010F960E946A28F1
:1026A000C8010E946A2886E195E00E9487326FE99E
:1026B00073E083EB91E00E94110774C10E94A12E88
:1026C0006C157D058E059F0548F480911D03909142
:1026D0001E03019690931E0380931D0320912503F2
:1026E0003091260380912F0390913003820F931F26
:1026F000969587959695879520913303309134036D
:102700008217930708F0C0CB0E94A12E00914D03C1
:1027100010914E0320914F033091500360177107C1
:102720008207930708F0B0CB86E10E94832C909338
:10273000340380933303D2CF6FE570EF69CD0E94ED
:10274000A12EDC01CB0188199909AA09BB098034A3
:102750009244AF40B10508F41DC17CCD86E10E94D2
:10276000832C90933403809333032091230330917F
:1027700024032817390708F028CE90932403809368
:10278000230323CE40910F0150911001609111015C
:102790007091120112C020911D0330911E0340E080
:1027A00050E060913503709136038091370390912A
:1027B00038030E94AD33BA01A901CE0101960E94EF
:1027C000CC07BE016F5F7F4F81E193E00E94172924
:1027D000CE0101960E946A281DCE80E2882E8EE4EA
:1027E000982EA12CB12CA0CE86E10E94832C2091A2
:1027F0001F03309120032817390750F40E94A12E9F
:102800006093590370935A0380935B0390935C0326
:102810000E94A12E00914D0310914E0320914F0371
:1028200030915003061717072807390708F072CEB2
:1028300010921701109218011092190110921A01AA
:1028400087CE80919D03833069F46091410370913C
:10285000420380914303909144030E9413350E94E8
:1028600050282FC0C0901D03D0901E034601A12CFC
:10287000B12C40904103509042036090430370900C
:1028800044032FE632E143E05BE3C301B2010E945F
:10289000CD350E94133586169706A806B906D0F4E2
:1028A0009601A8EEB3E00E94F1334B015C01C30135
:1028B000B2010E9413359B01AC01C501B4010E9415
:1028C000AD3360930B0170930C0180930D019093D5
:1028D0000E0132C060913503709136038091370349
:1028E00090913803A50194010E94AD3380901701A7
:1028F00090901801A0901901B0901A0180910B01DD
:1029000090910C01A0910D01B0910E0182169306D9
:10291000A406B50628F48C599F4FAF4FBF4F04C093
:1029200084569109A109B10980930B0190930C0180
:10293000A0930D01B0930E010E94A12E6093590344
:1029400070935A0380935B0390935C0380905903C8
:1029500090905A03A0905B03B0905C0380910B01B0
:1029600090910C01A0910D01B0910E01880E991E5D
:10297000AA1EBB1E0E94A12E681579058A059B051B
:1029800008F01BCC86E10E94832C90933403809343
:102990003303DCCF86E10E94832C90933403809331
:1029A000330344CCE296E2E10C94263463E271E016
:1029B0008FE993E00E94CE2863E271E081E193E029
:1029C0000C94CE2881E193E00E946A288FE993E07D
:1029D0000C946A28A4E0B0E0E0EFF4E10C940A342F
:1029E0008CEC91E00E94742261E08CEC91E00E94FA
:1029F000721D81E090E09093DE018093DD01909361
:102A0000DC018093DB01CC24C394D12C6EE1E62E53
:102A1000F12C00E810E02CEB37E040E050E060E003
:102A200070E08CEC91E017D5E12CF12C00E210E085
:102A300020E830E040E250E060E070E08CEC91E0B3
:102A4000E9D381E390E09093D8018093D70184E2A9
:102A500090E09093DA018093D90161E672E08CEC0A
:102A600091E00E94ED261092D8011092D70129E33F
:102A700030E03093DA012093D90166E572E08CEC06
:102A800091E00E94ED2690D1AC01990F660B770B77
:102A90008CEC91E00E947E2788E690E09093D8012C
:102AA0008093D70189E390E09093DA018093D90174
:102AB00068E074E08CEC91E00E94ED268CEC91E0F3
:102AC0000E94C32583EB91E00E94E5068CEC91E027
:102AD0000E947422E0E4F0E0FA83E983C12CD12C57
:102AE00070E4A72EB12C29813A81220F331FB50142
:102AF00089819A81681B790BEE24E394F12C8C0177
:102B0000A6018CEC91E022D494E0C90ED11CE9819D
:102B1000FA813897FA83E983389629F702E010E0C2
:102B200022E030E04FE150E06FE370E08CEC91E0A8
:102B30000DD48CEC91E00E94C32583EB91E00E94C0
:102B4000E506812C912C540181E192E09A838983DE
:102B50009C838B8386E10E94832CEB81FC81819393
:102B60009193FC83EB8388E894E00197F1F721E1EE
:102B700033E02E173F0771F78FEF93E09093280310
:102B80008093270310922603109225038CEC91E08A
:102B90000E94742224013501C12CD12CE981FA81D3
:102BA00021913191FA83E9833C832B838091270320
:102BB000909128032817390720F430932803209395
:102BC00027038091250390912603EB81FC818E17CA
:102BD0009F0720F4F0932603E093250326E636E6CC
:102BE00046E65FE3C501B4010E94CD354B015C01AF
:102BF0002B813C81B90180E090E00E943F352DECB3
:102C00003CEC4CEC5DE30E94CD35A50194010E94A3
:102C100042344B015C0116013FEF231A330AE9816C
:102C2000FA8100811181005E1F4F0E940E35061B44
:102C3000170B2B813C81205E3F4F3C832B83C301CC
:102C4000B2010E940E354B815C81461B570BEE246E
:102C5000E394F12C9101B6018CEC91E027D33FE78E
:102C60002316310421F061012401350197CF109220
:102C7000D8011092D7011092DA011092D90186E1A1
:102C80000E94832C909334038093330362E08CEC96
:102C900091E028D76EE472E08CEC91E00E94ED2682
:102CA00060913303709134034AE050E08CEC91E082
:102CB0000E94F8071092D8011092D70181E390E0AA
:102CC0009093DA018093D90166E472E08CEC91E094
:102CD0000E94ED26609125037091260380912703C1
:102CE00090912803681B790B4AE050E08CEC91E04E
:102CF0000E94F8078CEC91E00E94C32583EB91E0E1
:102D00000E94A206811143D183EB91E00E9432061A
:102D10001BCF0F931092210180E00E94832C0E9410
:102D20004828569A5E9A54985C9880917D008E7FD0
:102D300080937D0068EC70E080E090E00E94812E3E
:102D400001E020E04CE362E08CEC91E00E949222F2
:102D50006DE074E08CEC91E0C7D662E08CEC91E021
:102D600043D38CEC91E00E9474228CEC91E00E94A1
:102D7000C3255E9883EB91E00E94320681112ADE22
:102D80000F910895E0911F05F091200580E090E0FB
:102D9000309749F0029620813181820F931F028083
:102DA000F381E02DF5CF0895A2E0B0E0EAEDF6E181
:102DB0000C9418348091090590910A058E010F5FDB
:102DC0001F4F009729F4035315401A83098309C044
:102DD000081B190B1A830983D5DF800F911F9A8373
:102DE000898389819A812296E4E00C943434CF93CC
:102DF000DF93EC018CEC91E00E94742262E08CEC99
:102E000091E070D6ECECF1E082E090E0948783876B
:102E100096878587BE01CF010E94B4268CEC91E095
:102E20000E94C325DF91CF910895A0E0B0E0EBE1CF
:102E3000F7E10C940E344C015B016A017901380111
:102E40008CEC91E00E94742262E08CEC91E04AD616
:102E50000CEC11E0C2E0D0E0F801D487C387D6873C
:102E6000C587B401C8010E94B42661E0C8013AD602
:102E7000F801D487C38785E190E096878587B501FF
:102E8000C8010E94B426F801D487C38781E290E08C
:102E900096878587B601C8010E94B426F801D487B9
:102EA000C3878DE290E096878587B701C8010E94AD
:102EB000B4268EE690E0F8019487838789E090E05D
:102EC00096878587B301C8010E94B426C8010E9475
:102ED000C325CDB7DEB7EEE00C942A34A0E0B0E015
:102EE000E4E7F7E10C940E344C015B016A017901CF
:102EF00038018CEC91E00E94742262E08CEC91E04D
:102F0000F1D50CEC11E0C2E0D0E0F801D487C38722
:102F1000D687C587B401C8010E94B426F801D487BA
:102F2000C38785E190E096878587B501C8010E9437
:102F3000B42661E0C801D6D5F801D487C38788E2FA
:102F400090E096878587B601C8010E94B426F801F3
:102F5000D487C38784E390E096878587B701C8014B
:102F60000E94B4268EE690E0F801948783878CE176
:102F700090E096878587B301C8010E94B426C801F6
:102F80000E94C325CDB7DEB7EEE00C942A34A7E04B
:102F9000B0E0EDECF7E10C941A346CE979E0CE0185
:102FA00001960E940E29CE01019621DFCE010196E5
:102FB0000E946A2860E570EF86E195E00E94593230
:102FC00083EB91E00E943206882339F064E670E0DA
:102FD00080E090E00E94812EF3CF0E94382E63E2C1
:102FE00071E086EA93E00C94CE2886EA93E00C9494
:102FF0006A2880E090E008950895A6E0B0E0E3E05C
:10300000F8E10C940A342C017E836D836A01590126
:10301000C801FC82EB824801841A950A97FE03C01E
:1030200091948194910835012D813E81621A730A31
:1030300077FE03C07194619471086814790444F4B4
:1030400095015C01C9012D813E81DE82CD8269013D
:10305000AD81BE81AA16BB0634F496016C01C9018C
:10306000BE82AD825D0185012D813E81021B130B65
:103070001C012C183D0837FE03C0319421943108FF
:10308000780117FF03C03FEFE31AF30AF594E794C2
:10309000C816D9062CF08FEF9FEF9A83898304C05E
:1030A000A1E0B0E0BA83A9832D813E81A216B306C8
:1030B00024F1D201ED91FC910484F585E02D2B8162
:1030C0003C816814790424F44D815E81B60103C00B
:1030D000A6016D817E81C2010995E218F308F7FE11
:1030E00006C029813A81C20ED31EE00EF11E8D81E9
:1030F0009E8101969E838D83D7CF2696E2E10C9424
:103100002634DC01ED91FC910084F185E02D0995D8
:1031100008950F931F93DC01ED91FC91048CF58DC4
:10312000E02D09951F910F9108950F931F93DC01D6
:10313000ED91FC91068CF78DE02D09951F910F9173
:103140000895EF92FF920F931F93DC01ED91FC9194
:1031500000A0F1A1E02D09951F910F91FF90EF9034
:1031600008950895A0E0B0E0E8EBF8E10C94103485
:10317000EC015B014A0169017801E881F98102846F
:10318000F385E02D0995C80CD91C86010150110961
:10319000E881F9810488F589E02D9501A401B50144
:1031A000CE010995E881F9810688F789E02DCE01E5
:1031B0000995CDB7DEB7ECE00C942C34A0E0B0E07C
:1031C000E4EEF8E10C941034EC015B014A01690172
:1031D000E881F9810284F385E02D099595012C0D94
:1031E0003D1D21503109E881F9810488F589E02DE0
:1031F00078018401A401B501CE010995E881F98126
:103200000688F789E02DCE010995CDB7DEB7ECE051
:103210000C942C34A0E0B0E0E0E1F9E10C940E3421
:103220006C01EB015A0139014801DC01ED91FC917F
:103230000284F385E02D09956C0E7D1ED601ED917B
:10324000FC91C615D7055CF40088F189E02D870153
:103250009401A501BE01C60109952196EFCF06880C
:10326000F789E02DC6010995CDB7DEB7EEE00C94E5
:103270002A34EF92FF920F931F93DC0119960D9160
:103280001C911A9717962D913C911897ED91FC91EE
:1032900000A0F1A1E02D7B0140E050E060E070E093
:1032A00009951F910F91FF90EF900895A0E0B0E075
:1032B000ECE5F9E10C9410346C015B014A01E90181
:1032C000DC01ED91FC916217730771F40417150787
:1032D00014F448018A010819190998012F5F3F4F1A
:1032E000048CF58DE02D10C04017510799F4261776
:1032F000370714F45901EB019E012A193B092F5F8E
:103300003F4F068CF78DE02D8701A401B501C60162
:10331000099517C00284F385E02D0995D601ED913A
:10332000FC910488F589E02D9E01A401B501C60138
:103330000995D601ED91FC910688F789E02DC6012B
:103340000995CDB7DEB7ECE00C942C34A0E0B0E0EA
:10335000ECEAF9E10C940E34EC014B015A016901DD
:103360003801E881F9810284F385E02D0995E8812F
:10337000F9810288F389E02D87019601A501B40146
:10338000CE010995A501460D571D41505109E8810F
:10339000F9810288F389E02D9601B401CE010995E7
:1033A000E881F9810088F189E02D9301A501B4013C
:1033B000CE010995C80CD91CB60161507109E8818C
:1033C000F9810088F189E02D9301A501CE010995CD
:1033D000E881F9810688F789E02DCE010995CDB7FE
:1033E000DEB7EEE00C942A34FC016370658B8381B8
:1033F000948125813681613039F0633029F09087DE
:103400008783328721870895308727839287818732
:1034100008950895FC0112828AE391E091838083EC
:10342000748363835683458370876783528741879C
:10343000158A148613861686158681E0848B838B05
:103440002FEF3FEF328B218B308B2787868B178AAC
:10345000118E108E0895AAE0B0E0E1E3FAE10C9439
:103460000B345C017E836D8358874F8329013701BC
:10347000DC01ED91FC910284F385E02D0995C801F2
:10348000079697FD07969C0193E0359527959A95A9
:10349000E1F73A832983812C912CE12CF12C312CFA
:1034A0008F8198858E0D9F1D9C838B83E614F70476
:1034B0000CF03DC01A861986A985BA85A017B107F8
:1034C00074F5CD0187709927892B11F0330C0EC04C
:1034D000E985FA85F7FD379683E0F595E7958A95B6
:1034E000E1F7E80DF91DE40DF51D349037FE11C02C
:1034F000D501ED91FC910484F585E02D96014B8179
:103500005C816D817E8189859A85680F791FC501EF
:103510000995A985BA851196BA87A987CDCFBFEF3E
:10352000EB1AFB0A29813A81820E931EB9CFD5018D
:10353000ED91FC910688F789E02DC50109952A9641
:10354000E1E10C942734ABE1B0E0E9EAFAE10C9454
:103550000A349B8F8A8F1B014A01D22E1987088754
:103560003701A982DC0158962D913C91599721157C
:10357000310509F0FFC017968D919C911897681737
:1035800079070CF0CAC119968D919C911A9748172A
:1035900059070CF0C2C1EC2DF0E0FB83EA839B01DC
:1035A00046E0C49E200D311D11243D872C87121644
:1035B00013060CF0B2C16A2D70E07B876A8783E046
:1035C000660F771F8A95E1F77F876E87CB01880D9D
:1035D000991D181619060CF0A0C157968C918111EF
:1035E00004C08FEA8D1508F4D394AA8DBB8DED919C
:1035F000FC9111970284F385E02DCD010995B5E08A
:10360000DB9EC0011124EC2DF0E0F98BE88B9101D9
:103610002B5F3F4F3B8B2A8B51013D822C82AC01AB
:10362000421953095D8B4C8B7981672F70E07F8B3A
:103630006E8BC4010896998F888FEC89FD89EA0DFD
:10364000FB1DE955F64FD4909F828E822401D0FE57
:1036500016C0AA8DBB8DED91FC91B1E0CB1209C0D3
:103660002981213031F40484F585E02D28853985C0
:1036700019C00684F785E02DE884F9841DC04885CB
:1036800059854615570519F1AA8DBB8DED91FC9111
:10369000B1E0CB120DC02981213051F40484F585AD
:1036A000E02D9301A201B5018A8D9B8D09950FC074
:1036B0000684F785E02D73010A851B852A813B81ED
:1036C0004E815F816C817D818A8D9B8D0995D69419
:1036D0004E815F816E897F89460F571F5F834E83BE
:1036E0007FEF471A570A888D998D4816590609F0B9
:1036F000AECFAC81BD81E889F989AE0FBF1FBD8314
:10370000AC83FFEFAF1ABF0A2A893B89A216B30622
:1037100009F093CF488559854615570509F4F3C03C
:10372000AA8DBB8DED91FC91B1E0CB1211C0298126
:10373000213071F4B1016B5F7F4F0088F189E02D7A
:10374000830128E030E0A4018A8D9B8D0995DBC0C0
:103750006C857D854A815B81641B750B0684F785CA
:10376000E02D73010E851F859A01A4018A8D9B8D22
:103770000995C9C0F9013496E491DE1AF90132962F
:1037800085919491B7E0DB9E800D911D1124F90184
:1037900025913491398B288BFC0165907490FC0144
:1037A0003296B4903196A4903296549031961491FA
:1037B00031E03C1518F04981423068F0652D052C48
:1037C000000C770B7B836A83812F012E000C990BF1
:1037D0009D838C8304C01D821C821B821A82AA8D49
:1037E000BB8DED91FC9111970284F385E02DCD0105
:1037F000099580E0D12C412CF981EF2FF0E0FF8377
:10380000EE832C2D30E03B872A87A401410F511D08
:1038100017FD5A955D8B4C8BB101650D711D57FCE1
:103820007A957F8B6E8B4A1408F06DC0242D30E0A2
:103830006C817D81620F731FAE81BF81A69FA00145
:10384000A79F500DB69F500D1124F401E40FF51FF2
:10385000FF87EE87512C4C895D89420F531F5B8B8C
:103860004A8B5B1408F04DC051E0580F5C8787709D
:1038700041F4C3010196E889F989E60DF71DD4905A
:103880003C01D7FE3AC061E0C61216C079817130A2
:1038900099F4AA8DBB8DED91FC9111970484F58567
:1038A000E02D288539854A895B896E897F89650D78
:1038B000711DCD01099521C08A819B81850D911DC6
:1038C000EA85FB858E9FB0018F9F700D9E9F700DC6
:1038D0001124620D731DAA8DBB8DED91FC91119782
:1038E0000684F785E02DE884F9840E811F812A85FE
:1038F0003B854E855F85CD010995DD0C53948C8504
:10390000B0CF439490CFAA8DBB8DED91FC911197D0
:103910000688F789E02DCD0109956B96E2E10C94BC
:1039200026348F929F92AF92CF92EF92FF920F9395
:103930001F93CF93DF93EC01262F888D998D0097ED
:1039400009F041C06A3059F41C861B862C898D858C
:103950009E8538E0239F800D911D112442C06D305B
:1039600009F4A8C08E898823C9F03B898B859C8582
:1039700046E0349F800D911D11244F8158854817D2
:10398000590764F41C861B863C898D859E8548E01A
:10399000349F800D911D11249E878D87E988FA88B8
:1039A0000F8518894D855E856B857C85AC88CB88B5
:1039B000CE01C9DD2B898B859C8536E0239F800D48
:1039C000911D11243EC06A3079F41C861B862C8917
:1039D000FC013696E4918D859E852E9F800D911D6C
:1039E00011249E878D8766C06D3009F463C0FC0189
:1039F00034963491631708F45DC03196E491E6176C
:103A000008F458C0462F431B342FFC013296859092
:103A1000949047E0349F800C911C1124F40132965D
:103A200034913196E491332311F0E1110DC0F4018A
:103A30003496E4912B898B859C85E29F800D911DA6
:103A400011249C878B8736C0F401359644915E899A
:103A5000552319F15B89E32FF0E0E40FF11D47FDD9
:103A6000FA955E9FB0015F9F700D11244B855C85B8
:103A7000460F571F6F8178856417750774F41C868D
:103A80001B863C89FC013696E4918D859E853E9F80
:103A9000800D911D11249E878D87E988FA880F85F6
:103AA00018894D855E856B857C85AC88CB88CE0179
:103AB0004ADDBDCF81E090E0DF91CF911F910F9162
:103AC000FF90EF90CF90AF909F908F9008956111ED
:103AD00001C061E0FC01638B411101C041E0FC01C8
:103AE000448B0895462FF3CFFC01808D918D611595
:103AF000710531F0892B59F485859685069605C0A8
:103B0000892B29F085859685069796878587718FFD
:103B1000608F08958091F90390E02091FA03821B51
:103B2000910908959091FA038091F903981750F440
:103B3000E92FF0E0E550FC4F208130E09F5F90934B
:103B4000FA0302C02FEF3FEFC9010895E091FA0395
:103B50008091F903E81730F4F0E0E550FC4F8081E4
:103B600090E008958FEF9FEF08950895A0E0B0E0F2
:103B7000ECEBFDE10C9414347C01CB018A01209123
:103B8000B503222389F0EB016B01C40ED51ECC15C1
:103B9000DD0561F06991D701ED91FC910190F08113
:103BA000E02DC7010995F3CF642FEFD0C801CDB741
:103BB000DEB7E8E00C943034A1E0B0E0E2EEFDE1E5
:103BC0000C941A3469832091B5032223C1F020910B
:103BD000B603203430F021E0FC01228380E090E045
:103BE00014C08091B703E82FF0E0E854FC4F9981AE
:103BF00090838F5F8093B7038093B60304C061E026
:103C0000CE010196C2D081E090E02196E2E00C94D2
:103C10003634FC01128288EE93E0A0E0B0E08383AA
:103C20009483A583B683178286E691E0918380838F
:103C300008951092FA031092F9031092B7031092AC
:103C4000B60337C09A01AB0160E074E284EF90E004
:103C50000E94AD33DA01C9014097A109B109B695B7
:103C6000A795979587958093B800089581E08093F4
:103C7000B5036093F8031092B7031092B60308954A
:103C8000F5CF08950F93062F21E04091B60368EB1E
:103C900073E08091F80328D01092B7031092B60316
:103CA0001092B5030F91089561E0ECCF8DEA93E097
:103CB000B0CF1092080581E08093060510920505AB
:103CC000599A589A84B58F7D84BDE9EBF0E08081E4
:103CD0008E7F808380818D7F80838CE08093B8008D
:103CE00085E48093BC0008950F93413408F045C0EB
:103CF000909108059111FCCF32E0309308050093B4
:103D000006053FEF30933B041092C0044093BF047C
:103D1000A1ECB4E0FB013E2F361B341718F43191AF
:103D20003D93F9CF1092070530910705880F832B3B
:103D30008093070580910505813041F410920505B7
:103D4000809107058093BB0085EC01C085EE8093D0
:103D5000BC00222321F0809108058230D1F38091AC
:103D60003B048F3F79F080913B04803241F0809199
:103D70003B04803331F094E005C091E003C092E051
:103D800001C093E0892F0F910895613490F4209140
:103D90000805243081F460937D04AFE7B4E0FC01B2
:103DA0002E2F281B261718F421912D93F9CF80E090
:103DB000089581E0089582E0089585ED8093BC0028
:103DC0008091BC0084FDFCCF10920805089585EC1D
:103DD0008093BC001092080508951F920F920FB6B1
:103DE0000F9211242F933F934F935F936F937F9381
:103DF0008F939F93AF93BF93EF93FF938091B900FD
:103E0000887F803609F49CC068F5883209F45BC06D
:103E100090F4803109F454C038F4882309F4F2C0D6
:103E2000883009F44DC0F1C0883109F44CC08032AB
:103E300009F45DC0EAC0803409F468C048F48033F6
:103E400009F455C0883309F0E0C080933B04A6C054
:103E5000803509F44FC0883509F45DC0883409F015
:103E6000D4C0D2C0883909F4C3C0A8F4883709F493
:103E700067C038F4883609F463C0803709F460C03D
:103E8000C4C0883809F4B4C0803909F45FC08038F0
:103E900009F0BBC05BC0803B09F482C038F4803AB3
:103EA00009F466C0883A09F47BC0AFC0803C09F4CD
:103EB000A3C0883C09F4A0C0883B09F486C0A5C013
:103EC0008091070510C09091C0048091BF0498179D
:103ED00070F5E091C00481E08E0F8093C004F0E0A3
:103EE000EF53FB4F80818093BB0085EC82C08093B1
:103EF0003B048AC0E091C00481E08E0F8093C0042F
:103F00008091BB00F0E0EF53FB4F80839091C004A1
:103F10008091BF046AC0E091C00481E08E0F80935D
:103F2000C0048091BB00F0E0EF53FB4F8083809191
:103F30000605811169C081E08093050584EA5DC0B2
:103F400083E08093080510923C04CFCF80913C041D
:103F5000803408F04DC0E0913C0481E08E0F8093E6
:103F60003C048091BB00F0E0E35CFB4F8083BDCF5D
:103F700080913C04803430F4E0913C04F0E0E35C58
:103F8000FB4F108260913C0470E0E0910105F091DC
:103F900002058DE394E0099510923C0418DF35C0CA
:103FA00084E08093080510927E0410927D04E091D5
:103FB0000305F0910405099580917D04811105C0E8
:103FC00081E080937D0410927F04E0917E0481E083
:103FD0008E0F80937E04F0E0E158FB4F8081809348
:103FE000BB0090917E0480917D04981708F47DCFEA
:103FF00085E88093BC0009C085EC8093BC001092DA
:10400000080503C010923B04D8DEFF91EF91BF91E9
:10401000AF919F918F917F916F915F914F913F9160
:104020002F910F900FBE0F901F901895FC0177FDF8
:10403000B9C087819085681779070CF0B3C057FD28
:10404000B1C081859285481759070CF0089585897C
:10405000823079F483819481DC01A61BB70BBD010A
:104060006150710985819681DC01A41BB50BAD01FE
:104070000EC0833009F084C064277527CA018627E3
:1040800097276827792745815681481B590B41504E
:1040900051092130310531F048F12230310509F460
:1040A0004AC00895CA0157FD07969C01A3E03595C3
:1040B0002795AA95E1F7A381B4812A9FC0012B9F80
:1040C000900D3A9F900D1124680F791F068CF78D83
:1040D000E02DE60FF71F4770552781E090E001C003
:1040E000880F4A95EAF79081892B48C0CA0157FD8D
:1040F00007969C0193E0359527959A95E1F7A38162
:10410000B4812A9FC0012B9F900D3A9F900D1124DE
:10411000680F791F068CF78DE02DE60FF71F4770AB
:10412000552781E090E001C0880F4A95EAF7809515
:104130009081892323C0CA0157FD07969C0183E023
:10414000359527958A95E1F7A381B4812A9FC0010F
:104150002B9F900D3A9F900D1124680F791F068CAC
:10416000F78DE02DE60FF71F4770552781E090E0AF
:1041700001C0880F4A95EAF79081892780830895C6
:10418000813009F086CF6427752746275727642793
:10419000752783819481DC01A61BB70BBD0161509B
:1041A000710977CF0895AC0180911E05882381F0B5
:1041B000813051F48DB380931C052DB390911D0572
:1041C000909592239DBB04C08FB7F89480931C05F3
:1041D0004CBD5DBD08958EBD00000DB407FEFDCF42
:1041E0008EB5089590911E05992339F080911C0594
:1041F000913011F48DBB08958FBF08954F925F9257
:104200006F927F928F929F92AF92BF92CF92DF92E6
:10421000EF92FF920F93CF93DF93CDB7DEB73C01C0
:10422000290150E070E0F6D888E791E0F30191832E
:104230008083138E128E4114510411F0C20102C00A
:104240008DEA93E0F301958F848F178E168E8FEF92
:1042500083A384A385A386A307A380E584AB15AAC3
:10426000C6AAD7AAE0AEF1AE82AE93AEA4AEB5AE0A
:10427000DF91CF910F91FF90EF90DF90CF90BF90A3
:10428000AF909F908F907F906F905F904F90089528
:1042900028E731E0FC0131832083868D978D0097DC
:1042A00011F00C94EF2A08951F93CF93DF93EC0144
:1042B000162F8C8D9D8D0097E9F068A1062E000CBD
:1042C000770BDEDC8C8D9D8DDC01ED91FC910190F6
:1042D000F081E02D60E009958C8D9D8DDC01ED91E4
:1042E000FC910190F081E02D612F09958C8D9D8DC1
:1042F000DBDC2FC0ECA5FDA590818AA980958923E0
:1043000080838A8D9B8D892B19F0862F64DF21C0D5
:1043100028E030E090E8E8A5F9A588A9412F4923D5
:1043200019F04081842B03C04081809584238083D1
:10433000EAA5FBA5408189A9842B8083EAA5FBA57A
:10434000408189A9809584238083969521503109E5
:1043500011F7DF91CF911F9108951F93CF93DF93B2
:10436000EC01162F8C8D9D8D009731F04EA95FA921
:1043700068AD79AD67DC0EC08A8D9B8D892B19F0F5
:104380008CA99DA910DFEEA5FFA590818BA9809532
:1043900089238083111102C066EA01C067EACE0159
:1043A00083DF8C8D9D8D009731F04AAD5BAD6CAD98
:1043B0007DAD48DC0BC0EEA5FFA590818BA9892BB4
:1043C00080838A8D9B8D892B09F00CDFDF91CF9143
:1043D0001F910895CF92DF92FF920F931F93CF9377
:1043E000DF93EC018B01F42E8C8D9D8D009709F4E9
:1043F0003DC068A1062E000C770B42DC8C8D9D8D94
:10440000DC01ED91FC910190F081E02D60E00995D7
:10441000680111E08C8D9D8DFF2031F1103498F0F2
:1044200043DC68A1062E000C770B8C8D9D8D28DC5B
:104430008C8D9D8DDC01ED91FC910190F081E02D42
:1044400060E0099511E08C8D9D8DF6016491DC0191
:10445000ED91FC910190F081E02D09951F5FFA9498
:10446000F60131966F01D6CF1FDC36C0ECA5FDA555
:1044700090818AA9809589238083FF2069F1F801C2
:1044800084912A8D3B8D232B29F0A5DEFA940F5FB2
:104490001F4FF3CF28E030E040E8E8A5F9A598A940
:1044A000582F542319F05081952B03C050819095BB
:1044B00095239083EAA5FBA5508199A9952B90831C
:1044C000EAA5FBA5508199A99095952390834695DF
:1044D0002150310911F7DACFDF91CF911F910F9160
:1044E000FF90DF90CF900895FC01858196819C011B
:1044F000295F3F4F37FF02C0295F3F4F83E035956B
:1045000027958A95E1F783819481289FA001299FAF
:10451000500D389F500D112460E070E0868D978D0E
:104520000C940D37A0E0B0E0E8E9F2E20C9410340E
:10453000EC01862EB42EA22E902E8E8D9F8D892B6F
:10454000E1F42D813E81C901079697FD0796A3E00E
:1045500095958795AA95E1F72B813C81AC01429F07
:10456000C001439F900D529F900D1124A1D79F8FA2
:104570008E8F892B11F480E062C1CE01B5DF4D81B1
:104580005E816B817C814132510594F05595479550
:1045900077FF02C06F5F7F4F75956795CC24C394FA
:1045A000D12CE12CF12C00E010E028ED39E015C011
:1045B00057FF02C04F5F5F4F5595479577FF02C089
:1045C0006F5F7F4F75956795CC24C394D12CE12CF8
:1045D000F12C00E010E028ED39E0CE010E942B1A0A
:1045E00089A28C8D9D8D009791F0B11007C02D810F
:1045F0003E812032310521F42CE303C02B2D01C074
:104600002DE328A3992009F417C113DB69C08DA1FC
:104610000E94C22C8EA10E94C22C8DA1880F990BE2
:10462000FC01E752F64FE491F0E03296FDA7ECA7CB
:10463000FC01E852F64FE491EAAB8EA1880F990B8A
:10464000FC01E752F64FE491AE2FB0E09D012E5FE2
:104650003F4F3FA72EA7FC01E852F64FE491EBAB8A
:1046600012968C911297E82B1296EC938A8D9B8D63
:10467000892B31F0992009F433C00E94A23330C055
:104680008BA10E94C22C8CA10E94C22C8BA1880FEE
:10469000990BFC01E752F64FE491F0E03296F9A74E
:1046A000E8A7FC01E852F64FE491E8AB8CA1880F33
:1046B000990BFC01E752F64FE491AE2FB0E09D015B
:1046C0002E5F3F4F3BA72AA7FC01E852F64FE4912B
:1046D000E9AB12968C911297E095E8231296EC9331
:1046E000AA20E9F08FA187FD1AC00E94C22CEFA179
:1046F000F0E00E942D2D61E070E080E090E00E94EB
:10470000812EEFA1F0E00E94332D6AE070E080E09E
:1047100090E00E94812EEFA1F0E00E942D2D8C8D63
:104720009D8D009731F04EA95FA968AD79AD8ADA09
:104730000EC08A8D9B8D892B19F08CA99DA933DD24
:10474000EEA5FFA590818BA980958923808344E005
:1047500064ED79E0CE013EDE6D816150CE01A4DDD5
:1047600044E060ED79E0CE0135DE89A1813011F4BD
:1047700060E101C064E1CE0197DD44E06CEC79E0DA
:10478000CE0128DE8B819C8180389105D1F48D810A
:104790009E818032910531F444E068EC79E0CE01ED
:1047A00019DE23C08034910501F543E065EC79E022
:1047B000CE0110DE89A1813011F46FE914C06FECD5
:1047C00012C08036910589F48D819E81409769F4ED
:1047D00043E062EC79E0CE01FDDD89A1813011F486
:1047E00060E101C06FEACE015FDD69EDCE015CDD05
:1047F00089A1813011F462E201C061EFCE0154DD84
:1048000046E06CEB79E0CE01E5DD8C8D9D8D009767
:1048100031F04AAD5BAD6CAD7DAD14DA0BC0EEA5E9
:10482000FFA590818BA9892B80838A8D9B8D892BF5
:1048300009F0D8DC81E003C0A11054CF74CFCDB70C
:10484000DEB7ECE00C942C340F931F93CF93DF93DF
:10485000DC0157FD64C015968D919C911697481701
:1048600059070CF05CC077FF04C0260F371F60E0CB
:1048700070E01396CD91DC911497CB01820F931FBA
:10488000C817D9071CF49E01261B370B12161306F6
:104890000CF045C0FA0157FD3796CF01E3E095953E
:1048A0008795EA95E1F78C9FF0018D9FF00D9C9F15
:1048B000F00D11246E0F7F1F5E96ED91FC915F97B6
:1048C000E60FF71F4770552781E090E001C0880F81
:1048D0004A95EAF7482F0130110539F078F0023097
:1048E0001105E9F42E0F3F1F13C02E0F3F1FE217D3
:1048F000F307A9F08081842B8193F9CF80952E0F47
:104900003F1FE217F30759F0908198239193F9CF55
:10491000E217F30721F0808184278193F9CFDF919B
:10492000CF911F910F910895EF92FF920F931F93D4
:10493000CF93DF93EC0177FDA2C0EB80FC806E1576
:104940007F050CF09CC057FF04C0240F351F40E0CA
:1049500050E08D819E81FA01E20FF31F8E179F07B1
:104960001CF49C01241B350B121613060CF087C097
:10497000922F842F8695869586958E9DD0018F9D4A
:10498000B00D11246A0F7B1FAE8DBF8DA60FB71F10
:104990004770B1F188E0841B482F682F70E0FB015D
:1049A000EC54F64FE491281798F4621B71092FEF2D
:1049B00030E002C0359527956A95E2F7E223013091
:1049C000110549F078F00230110509F058C00EC009
:1049D0000130110519F48C91E82B0AC00130110542
:1049E00008F046C0E0958C91E82302C08C91E8273E
:1049F000EC93941708F443C02B813C81A20FB31FA2
:104A0000E92FE41BE830E0F00230110559F48C91F5
:104A100080958C938B819C81A80FB91FE850E8305A
:104A2000B0F70EC081E00115110509F480E0819511
:104A30008C932B813C81A20FB31FE850E830C0F764
:104A4000EE23E9F0F0E0E455F64FE4910130110572
:104A500039F048F00230110591F48C91E82706C036
:104A60008C91E82B03C0E0958C91E823EC9307C070
:104A70000230110509F4BACFAE0DBF1DC1CFCDB7BD
:104A8000DEB7E6E00C9432340F931F93DC015596A9
:104A9000EC915597E23061F0E33009F1E13079F5BE
:104AA0001396ED91FC911497E41BF50B319723C0FD
:104AB000DC011396ED91FC911497DF01A61BB70B57
:104AC000BD01DC011596ED91FC911697DF01A41B49
:104AD000B50BAD0141505109621B730B10C0FA01B7
:104AE000DC0115964D915C911697DA01A61BB70B68
:104AF000BD01621B730BAB01BF0116DF01C0A4DE59
:104B00001F910F9108950F931F93DC015596EC911F
:104B10005597E23069F0E33011F1E13081F51396F9
:104B2000ED91FC911497E41BF50BE21BF30B23C0F2
:104B3000DC011396ED91FC911497DF01A61BB70BD6
:104B4000BD0161507109DC011596ED91FC9116973C
:104B5000DF01A41BB50BAD01421B530B10C0FA01C2
:104B6000DC0115964D915C911697DA01A61BB70BE7
:104B7000BD0161507109AB01BF0166DE01C0D4DE29
:104B80001F910F910895A0E0B0E0E9ECF5E20C94DC
:104B90001434EC018C8D9D8D009731F04EA95FA9E6
:104BA00068AD79AD4FD80EC08A8D9B8D892B19F0D9
:104BB0008CA99DA9F8DAEEA5FFA590818BA9809517
:104BC0008923808345E067EA79E0CE0103DC6B81CD
:104BD0006150CE0169DB2D813E81C901079697FDA9
:104BE000079623E0959587952A95E1F72B813C81DF
:104BF000829F7001839FF00C929FF00C11240E8D08
:104C00001F8D8C8D9D8DE00EF11E009709F43BC029
:104C100068A1062E000C770B33D88C8D9D8DDC019E
:104C2000ED91FC910190F081E02D60E4099568011F
:104C300011E08C8D9D8DEC14FD0419F1103498F069
:104C400033D868A1062E000C770B8C8D9D8D18D85B
:104C50008C8D9D8DDC01ED91FC910190F081E02D1A
:104C600060E4099511E08C8D9D8DF60161916F01D5
:104C7000DC01ED91FC910190F081E02D09951F5F21
:104C8000D8CF12D834C0ECA5FDA590818AA9892B74
:104C900080830E151F0559F1F80181918F012A8D2E
:104CA0003B8D232B11F097DAF4CF28E030E040E879
:104CB000E8A5F9A598A9582F542319F05081952BF0
:104CC00003C05081909595239083EAA5FBA5508160
:104CD00099A9952B9083EAA5FBA5508199A9909558
:104CE0009523908346952150310911F7D2CF8C8DB1
:104CF0009D8D009739F04AAD5BAD6CAD7DAD0E94E6
:104D0000221E0BC0EEA5FFA590818BA9892B808365
:104D10008A8D9B8D892B09F065DACDB7DEB7E8E087
:104D20000C943034A0E0B0E0E8E9F6E20C941434DE
:104D30006C01EB017B01E40EF51E00E010E0CE15E6
:104D4000DF0561F06991D601ED91FC910190F08150
:104D5000E02DC6010995080F191FF1CFC801CDB785
:104D6000DEB7E8E00C943034A1E2B0E0EAEBF6E222
:104D70000C9410345C014B01DB0114960D911C91D5
:104D80001597C12CD12CE12CF12C0115110501F145
:104D9000960141E250E0BE016F5F7F4FC40153D3E3
:104DA000A8010132110510F040E250E0C40ED51EFA
:104DB000041B150BD501ED91FC910280F381E02DD0
:104DC000BE016F5F7F4FC5010995E80EF91EDDCF6B
:104DD000C701A196ECE00C942C34A0E2B0E0E3EF24
:104DE000F6E20C9410344C016B01CB010E94FB36AF
:104DF0007C01A12CB12CE114F10401F1870181E2C5
:104E0000E816F10410F000E210E0A801B601CE01AE
:104E100001960E94EB36C00ED11EE01AF10AD401B1
:104E2000ED91FC910280F381E02DA801BE016F5F3E
:104E30007F4FC4010995A80EB91EDDCFC501A0960C
:104E4000ECE00C942C34ABE0B0E0E9E2F7E20C9437
:104E50001634A22F7E012CE0E20EF11C8A019B0188
:104E6000E3E30E9F00270E0E011DF02D1E9F11275C
:104E7000000D111D2E9F2227100D211D3E9F33274F
:104E8000200D311D1124F00F011F121F231F311D92
:104E9000F10F021F131F211D311DF30F011D111DE5
:104EA000211D311D3695279517950795F795EAE051
:104EB000FE9FF12D1124B901A80130E33F0FF70146
:104EC00032937F01411551056105710509F0C6CF87
:104ED000AA2319F02DE222937F01AE014E195F093A
:104EE000445F5F4FDC01ED91FC910280F381E02D86
:104EF000B70109952B96E6E00C94323477FF09C090
:104F000070956095509541955F4F6F4F7F4F21E0B1
:104F100001C020E098CFA8E0B0E0E1E9F7E20C940E
:104F20001A34DC019E01275F3F4F942F9F70215060
:104F300031099A3010F4905D01C0995CF9019083B9
:104F400084E076956795579547958A95D1F74115F1
:104F500051056105710549F7AE01421B530B475FCF
:104F60005F4FED91FC9111970280F381E02DB90123
:104F7000CD0109952896E2E00C943634A0E2B0E029
:104F8000E4ECF7E20C941A34DC019E012F5D3F4FF4
:104F9000942F9170905DF90192939F01769567959A
:104FA00057954795411551056105710589F7AE0182
:104FB0004E1B5F0B4F5D5F4FED91FC91119702808F
:104FC000F381E02DB901CD010995A096E2E00C94A2
:104FD00036344F925F926F927F929F92AF92BF92C0
:104FE000CF92DF92EF92FF920F931F93CF93DF93B5
:104FF000CDB7DEB765970FB6F894DEBF0FBECDBF55
:105000005C016A017B01922E8E010A5E1F4F422EC7
:10501000512C612C712CC701B601A30192010E9491
:10502000AD338C2D929E80191124015011098A30C4
:1050300010F4805D01C0895CD8018C9369017A010C
:10504000232B242B252B39F7AE01401B510B4A5E35
:105050005F4FD501ED91FC910280F381E02DB80105
:10506000C501099565960FB6F894DEBF0FBECDBF9A
:10507000DF91CF911F910F91FF90EF90DF90CF9034
:10508000BF90AF909F907F906F905F904F900895EA
:10509000009729F0BC0180E090E00C94E23608957E
:1050A000CF92DF92EF92FF92611571058105910514
:1050B00049F06B017C010E949736A70196010E947E
:1050C000CF3303C060E070E0CB01FF90EF90DF9042
:1050D000CF900895FC018081918181C20F931F932D
:1050E000CF93DF93EC018B016F5F7F4F88819981B4
:1050F000FFD2009731F0998388831B830A8381E074
:1051000001C080E0DF91CF911F910F910895CF935F
:10511000DF93FC01228133812617370758F4EC0115
:10512000DDDF882341F08C819D81892B19F4E88192
:10513000F981108281E0DF91CF910895EF92FF9283
:105140000F931F93CF93DF93EC017B018A014115ED
:10515000510531F4E881F981309789F010820FC050
:10516000BA01D5DF2881398181110CC021153105A3
:1051700021F0C90134D2198218821B821A821D8241
:105180001C8206C01D830C83B701C9010E9414371D
:10519000CE01CDB7DEB7E6E00C943234FC011182CB
:1051A0001082138212821582148216826115710593
:1051B00049F0FB0101900020E9F73197AF01461B50
:1051C000570BBCCF0895EF92FF920F931F93CF938D
:1051D000DF93EC018B01CB010E94FB367C01BC010B
:1051E000CE0195DF2881398181110CC0211531054F
:1051F00021F0C901F4D1198218821B821A821D8202
:105200001C8206C0FD82EC82B801C9010E94F436FE
:10521000CE01CDB7DEB7E6E00C943234FC0111824A
:10522000108213821282158214821682CCCF8617C6
:10523000970731F0FB0144815581608171817ECFF8
:105240000895FC0111821082138212821582148249
:105250001682EDCFCF93DF93EC016115710551F00C
:10526000FB0101900020E9F73197AF01461B570B76
:1052700065DF02C01D821C82CE01DF91CF910895AF
:10528000A1E1B0E0E6E4F9E20C9418348C01CB0122
:10529000F801118210821382128215821482168202
:1052A00050E0BE016F5F7F4F0E942A37BE016F5FE3
:1052B0007F4FC801CFDF6196E4E00C943434A8E25C
:1052C000B0E0E5E6F9E20C9416347C01CB01BA01BA
:1052D000F7011182108213821282158214821682C3
:1052E00042E0420F8E010F5F1F4F0E943036BC011B
:1052F000C701B0DFA896E6E00C943234CF93DF9379
:10530000EC0161DFCE01DF91CF910895EF92FF9222
:105310000F931F93CF93DF93EC017B014115510550
:10532000A9F08C819D818A01080F191FB801CE0157
:10533000EEDE882359F0288139818C819D81B70167
:10534000820F931F0E9414371D830C83CE01CDB7AB
:10535000DEB7E6E00C943234EF92FF920F931F9386
:10536000CF93DF93EC017B01CB010E94FB360097CA
:10537000A9F02C813D818C01020F131FB801CE01D1
:10538000C6DE882359F0288139818C819D81B7013F
:10539000820F931F0E94F4361D830C83CE01CDB77C
:1053A000DEB7E6E00C943234A6E0B0E0EAEDF9E2D4
:1053B0000C9416347C01CB014AE08E010F5F1F4F25
:1053C000B8010E943437F80101900020E9F73197C5
:1053D000AF01401B510BB801C70198DFC7012696EA
:1053E000E6E00C943234CF93DF93EC01FB0144816F
:1053F0005581608171818ADFCE01DF91CF9108955F
:10540000CF93DF93EC016115710549F0FB01019029
:105410000020E9F73197AF01461B570B77DFCE012C
:10542000DF91CF910895CF93DF93EC0195DFCE010B
:10543000DF91CF910895CF93DF93EC01B5DFCE01DB
:10544000DF91CF9108950F931F93CF93DF93411571
:10545000510519F16115710501F1DC011496ED9109
:10546000FC9115972E173F0718F0FB01108215C00D
:10547000E21BF30BEA012197EC17FD0708F4EF019B
:105480008B01FC0160817181620F731FAE01C80145
:105490000E941B37C00FD11F1882DF91CF911F913F
:1054A0000F91089501D20E9489160E944F0AFDCFE4
:1054B0000F931F93CF93DF938230910510F482E016
:1054C00090E0E0911F05F091200520E030E0C0E081
:1054D000D0E0309701F1408151810281138148175A
:1054E0005907B0F08417950751F4209719F01B83E2
:1054F0000A8329C01093200500931F0524C021159D
:10550000310519F04217530718F49A01BE01DF0163
:10551000EF01F801DECF2115310509F1281B390B08
:105520002430310590F412968D919C91139761155A
:10553000710521F0FB019383828304C090932005C1
:1055400080931F05FD01329644C0FD01E20FF31F59
:1055500081939193225031092D933C933AC020912D
:10556000090530910A05232B41F420911D0130914A
:105570001E0130930A052093090520911B013091EB
:105580001C012115310541F42DB73EB740911F0193
:1055900050912001241B350BE0910905F0910A057B
:1055A000E217F307A0F42E1B3F0B2817390778F0FA
:1055B000AC014E5F5F4F2417350748F04E0F5F1F59
:1055C00050930A05409309058193919302C0E0E04E
:1055D000F0E0CF01DF91CF911F910F910895CF930C
:1055E000DF93009709F481C0FC0132971382128285
:1055F000A0911F05B0912005109781F42081318181
:10560000820F931F2091090530910A052817390749
:1056100051F5F0930A05E093090567C0ED0120E01C
:1056200030E0CE17DF0740F44A815B819E014115CF
:105630005105F1F0EA01F5CFD383C2834081518156
:10564000840F951FC817D90759F488819981840F51
:10565000951F0296918380838A819B8193838283A5
:105660002115310529F4F0932005E0931F053DC075
:10567000E901FB83EA8349915991C40FD51FEC17C7
:10568000FD0761F480819181840F951F0296E901E5
:1056900099838883828193819B838A83E0E0F0E011
:1056A00012968D919C911397009719F0FD01DC01E2
:1056B000F7CF8D919C9111979D012E5F3F4F820FE7
:1056C000931F2091090530910A052817390769F4BD
:1056D000309729F41092200510921F0502C0138202
:1056E0001282B0930A05A0930905DF91CF91089526
:1056F000A0E0B0E0EEE7FBE20C940E34EC01009782
:1057000019F4CB01D5DEAAC0FC01E60FF71F9C01FE
:1057100022503109E217F30708F49EC0D9010D9118
:105720001C91119706171707A8F00530110508F40A
:1057300091C0C80104978617970708F48BC00250E0
:105740001109061B170B019311936D937C93CF01E5
:1057500046DF80C05B01A01AB10A4C01800E911E89
:10576000A0911F05B0912005612C712CE12CF12C2A
:10577000109709F445C08D919C911197A815B90512
:10578000A9F56C0142E0C40ED11CCA14DB0470F10F
:10579000AC014A195B095A016A0152E0C50ED11CDD
:1057A00012960D90BC91A02D45E0C416D10440F096
:1057B000B383A283B182A082D9016D937C9308C088
:1057C0000E5F1F4F800F911FF90191838083FD01B0
:1057D000E114F10431F0D7011396FC93EE93129784
:1057E00039C0F0932005E0931F0534C06816790690
:1057F00008F43C017D0112960D90BC91A02DB8CF0C
:105800008091090590910A0588169906B1F46616EB
:10581000770698F48DB79EB740911F0150912001F3
:10582000841B950BE817F907B8F4F0930A05E09389
:105830000905F901718360830DC0CB0139DE7C015C
:10584000009751F0A801BE010E940437CE01C7DEC7
:10585000C70104C0CE0102C080E090E0CDB7DEB742
:10586000EEE0F8C708951DBA109268001CBC10BE87
:105870001FBA10927A0010926E0010926F00109270
:105880007100109272001092C900ECEBF0E01082EF
:1058900014B817B81AB81DB810BA108215B818B8CD
:1058A0001BB81EB811BA0895F894E1E6F0E020E8BC
:1058B0002083108283E084BD85BDEEE6F0E0808128
:1058C0008160808381E08093800092E090938100EA
:1058D00080939000909391009093C00094E09093F7
:1058E000C1008093C2008093C3001092C40086E878
:1058F00080937A0020937B0010927E0010927D00AE
:105900003FD2789408958731D0F5E82FF0E0EE5D2E
:10591000F54FE491E83070F420917E0081E090E052
:105920000E2E01C0880F0A94EAF7822B80937E0026
:1059300080E80EC0E85020917D0081E090E00E2EBE
:1059400001C0880F0A94EAF7822B80937D0080EAD9
:1059500080937B0080912101E82BE0937C00809173
:105960007A00806480937A0080917A0086FDFCCF73
:10597000809178002091790090E0922B089580E04A
:1059800090E00895893170F4E8EDF9E0880FE80FB0
:10599000F11D2591E491F0E09FB7F8948181822B6D
:1059A00081839FBF0895893138F595EF980F9C301A
:1059B00048F4EAE0FAE0990FE90FF11DA591B0E093
:1059C000959103C09FEFA0E0B0E0E8EDF9E0880F0B
:1059D000E80FF11D2591E491F0E04FB7F894318183
:1059E000822F8095232F2823218322818223828363
:1059F000EC919E239C934FBF0895893130F595EF2C
:105A0000980F9C3048F4EAE0FAE0990FE90FF11D95
:105A1000A591B0E0959103C09FEFA0E0B0E0E8ED64
:105A2000F9E0880FE80FF11D3591E491F0E04FB7F0
:105A3000F8942181832F8095282321838281832BD1
:105A40008283EC919E239C934FBF0895613009F4AB
:105A500099CF623009F4D1CFA6CFE93150F4EE0FDF
:105A6000E65CF24D0994E93120F4EE0FE459F24D71
:105A700009940895289A0895299A08952A9A0895CC
:105A80002B9A08952F9A6AC0589A58C0599A089527
:105A90005A9A08955B9A0895469A66C0479A6AC0D2
:105AA0005E9A08955F9A6CC02C9A08952D9A4AC008
:105AB0002E9A4EC08F9A08958E9A08958D9A0895C1
:105AC0008C9A0895899A0895889A08955C9A089501
:105AD0005D9A0895769A08952898089529980895CA
